:100000000C942A000C943F000C943F000C943F0089
:100010000C943F000C943F000C943F000C943F0064
:100020000C943F000C943F000C943F000C943F0054
:100030000C943F000C943F000C943F000C943F0044
:100040000C943F000C943F000C943F000C943F0034
:100050000C943F0011241FBECFE5D8E0DEBFCDBF1A
:1000600010E0A0E6B0E0ECECF3E002C005900D92E9
:10007000A836B107D9F70E9468010C94E4010C94EA
:100080000000843018F5683008F5442301F1413050
:10009000E9F421E030E0A90102C0440F551F6A9540
:1000A000E2F7823061F0833071F0813021F08AB361
:1000B000842B8ABB089587B3842B87BB089584B3B0
:1000C000842B84BB089581B3842B81BB089521E0E8
:1000D00030E0A90102C0440F551F6A95E2F7BA014A
:1000E0006095823051F0833059F0813019F08AB335
:1000F0008623DFCF87B38623E0CF84B38623E1CF87
:1001000081B38623E2CF843018F5683008F54423A4
:1001100001F14130E9F421E030E0A90102C0440FCF
:10012000551F6A95E2F7823061F0833071F08130BB
:1001300021F08BB3842B8BBB089588B3842B88BBB1
:10014000089585B3842B85BB089582B3842B82BB2D
:10015000089521E030E0A90102C0440F551F6A95BF
:10016000E2F7BA016095823051F0833059F0813066
:1001700019F08BB38623DFCF88B38623E0CF85B316
:100180008623E1CF82B38623E2CF8430B8F468308F
:10019000A8F4823079F0833079F0813049F089B366
:1001A00090E002C0959587956A95E2F78170089571
:1001B00086B3F6CF83B3F4CF80B3F2CF80E0089557
:1001C0008430F8F4662381F06F3FD9F4823041F037
:1001D000833041F0813011F06ABB089567BB089508
:1001E00064BB089561BB0895823041F0833041F0D3
:1001F000813011F01ABA089517BA089514BA089503
:1002000011BA0895843068F4823041F0833041F0AF
:10021000813011F06BBB089568BB089565BB0895EC
:1002200062BB0895843070F4823041F0833041F035
:10023000813011F089B3089586B3089583B308958A
:1002400080B3089580E008958430F8F46830E8F4CD
:1002500021E030E0A90102C0440F551F6A95E2F782
:10026000823061F0833071F0813021F08BB38427CC
:100270008BBB089588B3842788BB089585B38427F2
:1002800085BB089582B3842782BB08958430A8F487
:10029000823061F0833071F0813021F08BB3809532
:1002A0008BBB089588B3809588BB089585B38095EE
:1002B00085BB089582B3809582BB08956FEF82E07D
:1002C0000C94E00041E00C94830040E00C94830027
:1002D000CDB7DEB728970FB6F894DEBF0FBECDBFFF
:1002E0000E945E0188E0E0E6F0E0DE0111960190F8
:1002F0000D928A95E1F76E0125E0C20ED11C97E0C0
:10030000A92EB12C8E010F5F1F4F4E0189E0880E80
:10031000911CF801E1908F016E2D82E00E94620134
:10032000F401F2904F016F2D82E00E946201FFEF15
:1003300022E587E0F15020408040E1F700C0000056
:100340006E2D82E00E9465016F2D82E00E946501A2
:100350000C151D05F1F682E0E82EF12C02E010E00C
:10036000E1E0F0E0EC0FFD1FE00FF11F9080692D40
:1003700082E00E946201F501E01BF10B81E090E058
:100380008C0F9D1FE80FF91F1081612F82E00E94E2
:1003900062019FEFE2E5F7E09150E040F040E1F7C5
:1003A00000C00000692D82E00E946501612F82E09B
:1003B0000E94650101E010E0EA94EF2809F4A2CF61
:0C03C000EE24E394F12CCCCFF894FFCF96
:0803CC0003060200070501040D
:00000001FF
